:020000040800F2
:10000000D87E0020450100081B7400080D7400080C
:1000100017740008556E00085FAF0008000000006C
:10002000000000000000000000000000957B0008B8
:10003000716E0008000000009B200008C5810008C8
:1000400063AF0008A17700086D8200088D7A000870
:10005000A76E0008897A0008736E0008776E0008A2
:10006000796E00087B6E00087D6E00085F01000855
:100070005F0100085F0100085F0100085F010008E0
:100080005F0100085F0100085F0100085F010008D0
:100090005F0100085F0100085F0100087F6E000833
:1000A0006F82000875820008738200087182000860
:1000B000798200084D8300088D86000811740008BD
:1000C0000F7400081574000813740008917B000871
:1000D000937B000805AE000841AE00087DAE000825
:1000E000756E00088B7A00085DAF00085F0100089C
:1000F0005F0100085F0100085F0100085F01000860
:100100005F0100085F0100085F0100085F0100084F
:1001100021AD00085F0100085F0100085F010008D1
:100120005F0100085F0100085F0100085F0100082F
:10013000DFF80CD006F0ECFD00480047FDB60008E3
:10014000D87E00200648804706480047FEE7FEE7C5
:10015000FEE7FEE7FEE7FEE7FEE7FEE7FEE7FEE777
:100160000D8200083101000832490143324A116012
:10017000704770B5002100230F22C4780CB32E4CB9
:10018000246804F4E064C4F5E064210AC1F10403C6
:10019000CA40447804FA03F18478144021430901E9
:1001A000264C0678A155047804F01F050124AC40C4
:1001B00005786D114FF0E02606EB8505C5F8004186
:1001C00009E0047804F01F040125A5401C4C0678C2
:1001D000761144F8265070BD1A4A0A400243164B65
:1001E0001B1F1A60704741B1134A121D1268024367
:1001F0004FF0E023C3F8102D07E00F4A121D1268DC
:1002000082434FF0E023C3F8102D7047042808D133
:100210004FF0E021096941F004014FF0E022116143
:1002200007E04FF0E021096921F004014FF0E022DE
:10023000116170470000FA050CED00E000E400E0F9
:1002400080E100E080FFFF1F0021FF4A116801F0FC
:100250003801014311607047FB49096821F008012A
:10026000F94A116011460968014311607047F64967
:10027000096821F01001F44A116011460968014330
:1002800011607047F148F0494860F1484860704794
:10029000EE48ED494860EE4848607047EA4800691A
:1002A00040F08000E84908617047E748006940F085
:1002B0008000E549086170470420E349C96801F0FE
:1002C0000101012901D101200EE0DF49C96811F0C7
:1002D000040F01D0022007E0DB49C96811F0100FBC
:1002E00001D0032000E00420704700B5024604233B
:1002F000FFF7E2FF034603E0FFF7DEFF0346521E6F
:10030000012B01D1002AF7D102B90523184600BDFF
:1003100030B5044604254FF43020FFF7E6FF0546CC
:10032000042D17D1C848006940F00200C649086191
:1003300008464461006940F0400008614FF43020F5
:10034000FFF7D3FF0546C048006941F6FD7108403C
:10035000BD490861284630BD10B504244FF4302053
:10036000FFF7C3FF0446042C16D1B748006940F0DC
:100370000400B54908610846006940F04000086182
:100380004FF43020FFF7B1FF0446AF48006941F653
:10039000FB710840AC490861204610BD00B502461B
:1003A0000423FFF789FF034603E0FFF785FF0346B9
:1003B000521E012B01D1002AF7D102B9052318469C
:1003C00000BD10B504244FF43020FFF7E7FF0446CA
:1003D000042C16D19C48006940F004009A49086139
:1003E0000846006940F0400008614FF43020FFF7F4
:1003F000D5FF04469448006941F6FB7108409249D4
:100400000861204610BD00208F49C96911F0020F14
:1004100001D0012000E00020704730B5A52404255C
:10042000FFF7F1FF00B100244FF43020FFF75DFF2C
:100430000546042D3AD18548834988608448886000
:100440000846006940F0200008610846006940F055
:10045000400008614FF43020FFF747FF0546042DA8
:100460001BD17948006941F6DF710840764908617F
:100470000846006940F01000086176480480E802F0
:10048000FFF733FF0546052D10D06F48006941F690
:10049000EF7108406C49086108E0052D06D06A48F4
:1004A000006941F6EF71084067490861284630BD90
:1004B000F0B504460D4604260027F002FFF715FFAD
:1004C0000646042E22D16048006940F001005E49D2
:1004D00008612580F002FFF708FF0646042E0ED1C2
:1004E000A71C280C3880F002FFF7FFFE064656488E
:1004F000006941F6FE7108405349086106E0524820
:10050000006941F6FE7108404F4908613046F0BD70
:1005100070B504460D460426F002FFF7E6FE0646D7
:10052000042E11D14848006940F001004649086195
:100530002580F002FFF7D9FE06464348006941F6E0
:10054000FE71084040490861304670BD70B50446F0
:100550000D460426F002FFF7C8FE0646042E17D10A
:100560003A48394988603A4888600846006940F04E
:10057000100008612580F002FFF7B7FE0646052E41
:1005800006D03148006941F6EF7108402E490861F4
:10059000304670BD2DE9F04304464FF6FF752E46F8
:1005A0002F46A8464FF00409E443E5B2C4F30726FA
:1005B000C4F307474FEA14684FF40050FFF795FE65
:1005C0008146B9F1040F50D120481F498860204866
:1005D00088600846006940F010000861FF2D07D0D0
:1005E0001C48083005804FF40050FFF77EFE81461E
:1005F000B9F1040F09D1FF2E07D016480A30068042
:100600004FF40050FFF771FE8146B9F1040F09D194
:10061000FF2F07D00F480C3007804FF40050FFF732
:1006200064FE8146B9F1040F0AD1B8F1FF0F07D07B
:100630000948A0F80E884FF40050FFF756FE814697
:10064000B9F1050F11D009E00020024023016745F0
:10065000AB89EFCD00F8FF1F00F0FF1F694800696C
:1006600041F6EF710840674908614846BDE8F083EC
:1006700030B5044604254FF43020FFF736FE05461A
:10068000042D41D160485F49886060488860084611
:10069000006940F0200008610846006940F0400011
:1006A00008614FF43020FFF720FE0546042D22D1CB
:1006B0005448006941F6DF71084052490861084614
:1006C000006940F0100008611CB10020504908800A
:1006D00002E0A5204E4908804FF43020FFF705FEC8
:1006E0000546052D10D04748006941F6EF710840D6
:1006F0004449086108E0052D06D04248006941F6EA
:10070000DF7108403F490861284630BDF0B5044616
:100710000D46164604273C483A4988603B488860A5
:10072000F802FFF7E2FD0746042F19D135480069AA
:1007300040F010003349086146F0F8002843204398
:100740003349891C0880F802FFF7CFFD0746052FC3
:1007500006D02C48006941F6EF710840294908612C
:100760003846F0BD2748C069800870472548006AB0
:10077000704700202349096811F0200F01D00120A3
:1007800000E00020704729B11E4A126902431D4B48
:100790001A6104E01B4A126982431A4B1A617047BE
:1007A00001460020012908D1164AD26912F0010F32
:1007B00001D0012008E0002006E0124AD2680A4277
:1007C00001D0012000E0002070470E49C86070474A
:1007D00004200C49C96801F00101012901D101205F
:1007E0000EE00849C96811F0040F01D0022007E0AB
:1007F0000449C96811F0100F01D0032000E0042063
:10080000704700000020024023016745AB89EFCD0F
:1008100000F8FF1F10B50446C748844208D10121E3
:10082000042000F01BFB0021042000F017FB46E031
:10083000C248844208D10121082000F00FFB0021AA
:10084000082000F00BFB3AE0BD48844208D10121AA
:10085000102000F003FB0021102000F0FFFA2EE032
:10086000B848844208D10121202000F0F7FA002185
:10087000202000F0F3FA22E0B348844208D101219D
:10088000402000F0EBFA0021402000F0E7FA16E0EB
:10089000AE48844208D10121802000F0DFFA002117
:1008A000802000F0DBFA0AE0A948844207D1012148
:1008B000801500F0D3FA0021A01500F0CFFA10BD8A
:1008C00010B50121084600F0C9FA0021012000F00E
:1008D000C5FA10BDF0B50022002300240025002633
:1008E000002791F803C00CF00F0291F803C01CF030
:1008F000100F03D091F802C04CEA0202B1F800C018
:100900001CF0FF0F31D0066800242BE04FF0010CE3
:100910000CFA04F5B1F800C00CEA0503AB4220D193
:10092000A5004FF00F0C0CFA05F7BE4302FA05FCC8
:100930004CEA060691F803C0BCF1280F06D14FF02F
:10094000010C0CFA04FCC0F814C00AE091F803C0D2
:10095000BCF1480F05D14FF0010C0CFA04FCC0F8B3
:1009600010C0641C082CD1D30660B1F800C0BCF1E3
:10097000FF0F34DD466800242EE004F1080C4FF030
:10098000010E0EFA0CF5B1F800C00CEA0503AB42FB
:1009900021D1A5004FF00F0C0CFA05F7BE4302FA67
:1009A00005FC4CEA060691F803C0BCF1280F05D1FE
:1009B00004F1080C0EFA0CFEC0F814E091F803C024
:1009C000BCF1480F07D104F1080C4FF0010E0EFAEC
:1009D0000CFEC0F810E0641C082CCED34660F0BDBD
:1009E0004FF6FF710180022181700421C1707047B0
:1009F0000246002093680B4201D0012000E0002055
:100A000070470146886880B2704702460020D3686C
:100A10000B4201D0012000E0002070470146C86869
:100A200080B2704701617047416170470AB101614E
:100A300000E041617047C16070474FF480320A4363
:100A40008261816182618269826970470022414BC3
:100A50001A684FF680731A4042EA00120A433D4B6F
:100A60001A6070473C49C8617047F0B50022002306
:100A70000024002500F00046B6F1004F02D1354EAB
:100A8000F46901E0334E7468C0F3034582B200F4A8
:100A90004016B6F5401F08D124F070642D4E7668DC
:100AA00026F070662B4F7E6012E000F48016B6F5DB
:100AB000801F06D1032606FA05F39C4344F07064B8
:100AC00006E0460D360102FA06F6B44344F07064BF
:100AD00021B1460D360102FA06F6344300F0004615
:100AE000B6F1004F02D11B4EF46101E0194E746063
:100AF000F0BD30B500228B071C0F0F2303FA04F260
:100B0000144B08338C1053F8244094438D1043F851
:100B100025408C1053F824308C07240F00FA04F47D
:100B200023430C4C08348D1044F8253030BD0A495D
:100B3000DC3108607047000000080140000C0140F3
:100B4000001001400014014000180140001C014049
:100B5000002001400000014000002042DB48006806
:100B600040F00100D949086008464068D84908406B
:100B7000D649486008460068D6490840D34908600D
:100B80000846006820F4802008600846406820F489
:100B9000FE0048604FF41F0088607047CB49096829
:100BA00021F48031C94A11601146096821F480217D
:100BB0001160B0F5803F03D0B0F5802F0ED106E074
:100BC000C249096841F48031C04A116007E0BF4959
:100BD000096841F4A021BD4A116000E000BF00BFD8
:100BE000704710B501460022002300204A11012A57
:100BF00002D1B64C236806E0022A02D1B34C236A24
:100C000001E0B24C636A01F01F02012494401C42CF
:100C100001D0012000E0002010BD70B500240025A7
:100C2000002600BF3120FFF7DCFF0646641CB4F548
:100C3000A06F01D0002EF5D03120FFF7D2FF08B110
:100C4000012500E00025284670BD00219F4A11685B
:100C500021F0F80141EAC001116070479E49086027
:100C600070470022994B5A6822F47C1240EA010333
:100C70001A43964B5A60704797490866704700219F
:100C8000924A516821F003010143516070478F4837
:100C9000406800F00C00704700218C4A516821F038
:100CA000F0010143516070470021884A516821F4E6
:100CB000E0610143516070470021844A516821F48A
:100CC000605141EAC0015160704729B17F4A527AB0
:100CD00002437E4B5A7206E07C4A527AC343DBB22F
:100CE0001A407A4B5A7270477B49D8310860704776
:100CF0000021764A516821F4404101435160704718
:100D00000021724A20321170704A82F820100128A6
:100D100002D004280AD104E001216C4A203211706B
:100D200005E00521694A2032117000E000BF00BFD4
:100D300070476A49086070476449096A0143634A19
:100D400011627047654944390860704730B5002129
:100D50000022002300245D4D6D6805F00C0121B1D7
:100D6000042905D0082923D105E05D4D056022E066
:100D70005B4D05601FE0554D6D6805F47012534DD5
:100D80006D6805F48033022505EB92421BB9554D81
:100D9000554305600BE04D4D6D6815F4003F03D0E1
:100DA000504D5543056002E04D4D5543056002E04E
:100DB0004B4D056000BF00BF444D6D6805F0F0016C
:100DC0000909494D6C5C0568E54045603F4D6D681B
:100DD00005F4E061090A444D6C5C4568E5408560B6
:100DE0003A4D6D6805F46051C90A3F4D6C5C456829
:100DF000E540C560354D6D6805F44041890B3A4DBD
:100E000010356C5CC568B5FBF4F5056130BD29B1E2
:100E10002E4A526902432D4B5A6104E02B4A526913
:100E200082432A4B5A61704729B1284A926902438A
:100E3000264B9A6104E0254A92698243234B9A61CA
:100E4000704729B1214AD2690243204BDA6104E09C
:100E50001E4AD26982431D4BDA61704729B11B4A91
:100E6000D2680243194BDA6004E0184AD268824320
:100E7000164BDA60704729B1144A12690243134BCA
:100E80001A6104E0114A12698243104B1A617047DB
:100E900012494039086070470F49C86470470B49D0
:100EA000C87170470948406A40F08070074948623D
:100EB000704701460020054A92680A4201D001208D
:100EC00000E000207047014988727047001002401E
:100ED0000000FFF8FFFFF6FE00004242800442429D
:100EE00000127A0000093D007805002010B5044684
:100EF000FF48844208D10121C014FFF7AFFF002151
:100F0000E014FFF7ABFFC4E0B4F1804F08D101213A
:100F10000846FFF7B0FF00210120FFF7ACFFB8E063
:100F2000F448844208D101210220FFF7A4FF0021E8
:100F30000220FFF7A0FFACE0EF48844208D1012176
:100F40000420FFF798FF00210420FFF794FFA0E0A2
:100F5000EA48844208D101210820FFF78CFF0021D4
:100F60000820FFF788FF94E0E548844208D101217A
:100F70001020FFF780FF00211020FFF77CFF88E0A2
:100F8000E048844208D101212020FFF774FF0021AE
:100F90002020FFF770FF7CE0DB48844208D101216C
:100FA0004014FFF75BFF00216014FFF757FF70E06C
:100FB000D648844209D10121C804FFF74FFF002120
:100FC0004FF40020FFF74AFF63E0D148844209D183
:100FD00001210805FFF742FF00214FF48010FFF7C1
:100FE0003DFF56E0CB48844209D101214805FFF777
:100FF00035FF00214FF40010FFF730FF49E0C648ED
:10100000844208D101214020FFF735FF0021402014
:10101000FFF731FF3DE0C148844208D10121802023
:10102000FFF729FF00218020FFF725FF31E0BC48B2
:10103000844208D101218015FFF71DFF0021A01572
:10104000FFF719FF25E0B748844209D101210804C0
:10105000FFF704FF00214FF48030FFF7FFFE18E098
:10106000B148844209D101214804FFF7F7FE00216D
:101070004FF40030FFF7F2FE0BE0AC48844208D199
:1010800001218804FFF7EAFE00214FF48020FFF7DA
:10109000E5FE10BD00220288954B98420ED09A4B77
:1010A00098420BD0B0F1804F08D0924B984205D0B7
:1010B000914B984202D0914B984204D14FF68F73D6
:1010C0001A404B881A438E4B984207D08D4B98425A
:1010D00004D04FF6FF431A40CB881A4302808B8816
:1010E00083850B880385824B98420BD0864B9842B0
:1010F00008D08C4B984205D08B4B984202D08B4B3A
:10110000984201D10B7A038601238382704770B520
:10111000002200230024058C4FF6FE76354005841E
:10112000038C8488028B4FF68F752A40B51E2A40A7
:101130000D882A43751E2B400D892B434D882B4368
:101140006B4DA8420BD0704DA84208D0754DA842F7
:1011500005D0754DA84202D0744DA84213D14FF668
:10116000F7752B404D892B434FF6FB752B408D882F
:101170002B434FF6FF652C404FF6FF552C408D89D1
:101180002C43CD892C4384800283CD8885860384BB
:1011900070BD70B5002200230024058C4FF6EF7659
:1011A00035400584038C8488028B48F6FF752A40FD
:1011B0004FF6FF452A400D882D0642EA15424FF6AC
:1011C000DF752B400D892D0543EA15434D882D050C
:1011D00043EA1543464DA84202D04B4DA8421BD1CD
:1011E0004FF67F752B404D892D0543EA15434FF689
:1011F000BF752B408D882D0543EA15434FF6FF350B
:101200002C404FF2FF752C408D89AD0444EA154403
:10121000CD89AD0444EA154484800283CD880587D6
:10122000038470BD70B5002200230024058C4FF6A6
:10123000FF6635400584038C8488828B4FF68F755A
:101240002A404FF6FC752A400D882A434FF6FF5579
:101250002B400D892D0643EA15434D882D0643EAA0
:101260001543234DA84202D0274DA8421BD14FF26F
:10127000FF752B404D892D0643EA15434FF6FF3588
:101280002B408D882D0643EA15434EF6FF752C4002
:101290004DF6FF752C408D892D0544EA1544CD8906
:1012A0002D0544EA154484808283CD888587038494
:1012B00070BD70B5002200230024058C4EF6FF7629
:1012C00035400584038C8488828B48F6FF752A405C
:1012D0004FF6FF452A400D882D0642EA15424DF68D
:1012E000FF752B400D892D0743EA15434D881FE0FC
:1012F000002C01400004004000080040000C0040A9
:10130000001000400014004000340140004C014037
:10131000005001400054014000180040001C0040F3
:1013200000200040004001400044014000480140CE
:101330002D0743EA1543F84DA84202D0F74DA842C5
:1013400006D14BF6FF752C408D89AD0544EA154456
:1013500084808283CD88A0F84050038470BD828B46
:101360004FF2FF331A408283828B0B0642EA13420C
:1013700082837047F0B5002400250026078C4EF6C6
:10138000FF7C07EA0C070784848B058C0F073E0C53
:1013900040F6FF473C40170644EA17441F0744EA5B
:1013A0001744DD4FB8420ED0DC4FB8420BD0B0F13D
:1013B000804F08D0DA4FB84205D0DA4FB84202D099
:1013C000D94FB84206D14DF6FF773D4046F48057DD
:1013D0003D4305E047F6FF573D4041F480573D430C
:1013E00084830584F0BD828B4FF6F3731A408283A9
:1013F000828B0A4382837047F0B5002400250026C3
:10140000078C4FF6FF6C07EA0C070784848B058C6A
:101410000F063E0C4FF60C773C401F0542EA17477B
:101420003C43BD4FB8420ED0BC4FB8420BD0B0F1D8
:10143000804F08D0BA4FB84205D0BA4FB84202D058
:10144000B94FB84206D14FF6FF573D4046F480777A
:101450003D4305E04FF2FF573D4041F480773D4367
:1014600084830584F0BD028B4FF2FF331A40028360
:10147000028B0B0642EA134202837047F0B5002448
:1014800000250026078C4FF6EF7C07EA0C0707843F
:10149000048B058C0F053E0C40F6FF473C401F07B0
:1014A00044EA1744170644EA17449B4FB8420ED04B
:1014B0009A4FB8420BD0B0F1804F08D0984FB84245
:1014C00005D0984FB84202D0974FB84206D14FF698
:1014D000DF773D4046F010073D4305E04FF65F776C
:1014E0003D4041F010073D4304830584F0BD028B6D
:1014F0004FF6F3731A400283028B0A43028370474C
:10150000F0B500240025068C4FF6FE773E40068499
:10151000048B058C4FF60C7634401E0542EA1646C5
:1015200034437D4EB0420ED07C4EB0420BD0B0F171
:10153000804F08D07A4EB04205D07A4EB04202D0E9
:10154000794EB04206D14FF6FD76354041F00106A6
:10155000354305E04FF6F576354041F00106354359
:1015600004830584F0BD70B504460D466A48844284
:101570000ED06A4884420BD0B4F1804F08D068483E
:10158000844205D06748844202D06748844200D133
:1015900000E000BF288850B92B89AA8869882046B6
:1015A000FFF7AEFFE9882046FFF7A1FF25E0288876
:1015B00004280AD12B89AA8869882046FFF75EFF94
:1015C000E9882046FFF74FFF17E0288808280AD14E
:1015D0002B89AA8869882046FFF70EFFE9882046F4
:1015E000FFF701FF09E02B89AA8869882046FFF7E9
:1015F000C1FEE9882046FFF7B2FE70BD2DE9F0413B
:1016000004460D4600260127688808B9022600E036
:101610000026A888012801D1022700E00127288898
:10162000A0B92B89AA8869882046FFF769FFE98855
:101630002046FFF75CFF2B893A4631462046FFF7EC
:101640001DFFE9882046FFF70EFF13E02B89AA88CB
:1016500069882046FFF712FFE9882046FFF703FF5D
:101660002B893A4631462046FFF74AFFE988204653
:10167000FFF73DFFBDE8F0810A884B881A438B884D
:101680001A43CB881A430B891A434B891A438B8917
:101690001A43A0F8442070474FF6FF718180002163
:1016A0000180C1804180017270470021018041802A
:1016B0008180C180018141818181C1817047002188
:1016C00001804180012181800021C180018170471A
:1016D0000021018041808180C1800181418181811F
:1016E000704721B1028842F00102028004E00288C2
:1016F0004FF6FE731A400280704731B1B0F84420B3
:1017000042F40042A0F8442005E0B0F84420C2F3BF
:101710000E02A0F844207047002C01400034014024
:101720000004004000080040000C004010B51AB151
:1017300083890B43838104E08389CC43A4B2234093
:10174000838110BD8182704741EA0203A0F84830CE
:10175000704710B51AB183890B43838104E08389F4
:10176000CC43A4B22340838110BD01894FF6F872A7
:10177000114001817047002202894FF68F731A4091
:101780000A430281704730B504460D46294620467B
:10179000FFF7F1FF208940F00700208130BD2DE9DF
:1017A000F04104460D4616461F46602D06D13B46C5
:1017B000012231462046FFF761FE05E03B4601224B
:1017C00031462046FFF79CFE29462046FFF7D3FF0F
:1017D000208940F007002081BDE8F08130B5002469
:1017E0000489E4B21D0642EA15450D432C430481E9
:1017F00030BD2DE9F04104460D46164698460027B7
:101800004346324629462046FFF7E8FF27894FF630
:10181000F870074047F007074FF68F70074047F012
:1018200070072781BDE8F081F0B504460D461646E5
:101830001F463B46324629462046FFF7CFFF208908
:1018400040F480402081F0BD0185828270470022F3
:1018500002884FF68F731A400A4302807047F0B532
:101860000024002500260489058B068C4FF6F877A6
:101870003C400C434FF6FC473D4040F201173D43CE
:101880004FF6DD773E401F0542EA17473E4304818D
:1018900005830684F0BD0022028B4FF68F731A4039
:1018A0000A43028370470022028B48F6FF731A40F6
:1018B0000B0642EA1342028370470022828B4FF6E6
:1018C0008F731A400A43828370470022828B48F646
:1018D000FF731A400B0642EA13428283704721B11C
:1018E000028842F08002028004E002884FF67F7393
:1018F0001A400280704721B1828842F0040282803F
:1019000004E082884FF6FB731A408280704721B151
:10191000828842F00802828004E082884FF6F773E2
:101920001A408280704721B1828842F00102828091
:1019300004E082884FF6FE731A40828070470022CE
:10194000028B4FF6F7731A400A4302837047002256
:10195000028B4FF2FF731A400B0642EA13420283D6
:1019600070470022828B4FF6F7731A400A43828336
:1019700070470022828B4FF2FF731A400B0642EA37
:101980001342828370470022028B4FF6FB731A408A
:101990000A43028370470022028B4FF6FF331A403E
:1019A0000B0642EA1342028370470022828B4FF6F5
:1019B000FB731A400A43828370470022828B4FF6E2
:1019C000FF331A400B0642EA13428283704700221B
:1019D000028B4FF67F731A400A430283704700223E
:1019E000028BC2F30E020B0642EA134202837047D7
:1019F0000022828B4FF67F731A400A43828370471E
:101A00000022828BC2F30E020B0642EA134282834B
:101A100070470022028C4FF6FD731A400A4302847D
:101A200070470022028C4FF6F7731A400A43028473
:101A300070470022028C4FF6DF731A400B0542EA12
:101A40001342028470470022028C4FF67F731A40C3
:101A50000B0542EA1342028470470022028C4FF6C3
:101A6000FF531A400B0642EA1342028470470022D9
:101A7000028C4FF2FF731A400B0642EA13420284B3
:101A800070470022028C4DF6FF731A400B0742EAA2
:101A900013420284704730B5002301248C40A3B266
:101AA000048CDD43ADB22C400484048C02FA01F5B1
:101AB000ADB22C43048430BD30B5002304248C40E7
:101AC000A3B2048CDD43ADB22C400484048C02FA32
:101AD00001F5ADB22C43048430BD70B50023002461
:101AE00003461846183301258D40ACB2058CE643F9
:101AF000B6B23540058409B1082909D103EB610369
:101B00001D6825F070051D601D6815431D600CE003
:101B10000D1FADB203EB65031D6825F4E0451D60A4
:101B20001D68160645EA16451D6070BD21B1028884
:101B300042F00202028004E002884FF6FD731A4070
:101B40000280704721B1028842F00402028004E062
:101B500002884FF6FB731A400280704721B18288D9
:101B600042F08002828004E082884FF67F731A4040
:101B70008280704702884FF6F7731A40028002880D
:101B80000A430280704782884FF68F731A40828022
:101B900082880A438280704702894FF6F8731A40A0
:101BA000028102890A430281704702894FF67F73DE
:101BB0001A40028102890A4302817047818470477A
:101BC000818570478186704701877047818770479C
:101BD000A0F84010704702884FF6FF431A40028079
:101BE00002880A43028070470146888E704701468A
:101BF000088F70470146888F70470146B1F8400052
:101C000070470146888C70470146088D7047024630
:101C10000020138A0B4201D0012000E00020704711
:101C2000CA430282704730B50246002000230024D8
:101C3000158A05EA0103958905EA010413B10CB17F
:101C4000012000E0002030BDCA430282704700003E
:101C500010B50446FB48844209D101218803FFF7EF
:101C6000FDF800214FF48040FFF7F8F832E0F64825
:101C7000844209D101214804FFF7FDF800214FF407
:101C80000030FFF7F8F825E0F048844209D101213F
:101C90008804FFF7F0F800214FF48020FFF7EBF8FD
:101CA00018E0EB48844209D10121C804FFF7E3F8AA
:101CB00000214FF40020FFF7DEF80BE0E5488442F6
:101CC00008D101210805FFF7D6F800214FF4801054
:101CD000FFF7D1F810BD2DE9F04786B004460D4658
:101CE0000026002700BFB146B246A88900B100BF58
:101CF000A246268A4CF6FF700640E88806432682F4
:101D0000A6894EF6F3100640A888298908436989F8
:101D100008430643A681A68A4FF6FF400640A889DD
:101D20000643A68201A8FFF711F85446C54882452C
:101D300001D1049F00E0039FA08910F4004F08D058
:101D400007EBC70000EB071029684900B0FBF1F86A
:101D500007E007EBC70000EB071029688900B0FB1C
:101D6000F1F86420B8FBF0F006013009642101FBB2
:101D70001089A08910F4004F09D0322101EBC9006D
:101D80006421B0FBF1F000F00700064308E03221C7
:101D900001EB09106421B0FBF1F000F00F000643E5
:101DA000268106B0BDE8F0874FF41651016000218E
:101DB0008180C18001810C21418100218181704796
:101DC00010B50022028A4FF2FF031A400B884C889C
:101DD00023438C882343CC8823431A43028210BDBB
:101DE0000021018041808180C180704721B18289BA
:101DF00042F40052828104E082894DF6FF731A405A
:101E000082817047F0B50024002500260023A1F54B
:101E100010676A3F00D100BF0346C1F3421401F0CE
:101E20001F05012707FA05F6012C01D10C3304E048
:101E3000022C01D1103300E014331AB11F6837436C
:101E40001F6002E01F68B7431F60F0BD10B51AB1F4
:101E5000838A0B43838204E0838ACC43A4B2234069
:101E6000838210BD028A4FF6F0731A400282028A02
:101E70000A430282704782894FF2FF731A408281BF
:101E800082890A438281704721B1828942F002022D
:101E9000828104E082894FF6FD731A408281704787
:101EA000028A4FF6DF731A400282028A0A430282D4
:101EB000704721B1028A42F48042028204E0028A21
:101EC0004BF6FF731A4002827047C1F3080282800A
:101ED000704701468888C0F308007047818941F047
:101EE000010181817047028BD2B20283028B42EAE8
:101EF000012202837047028B02F47F420283028B2D
:101F00000A430283704721B1828A42F02002828212
:101F100004E0828A4FF6DF731A408282704721B153
:101F2000828A42F01002828204E0828A4FF6EF73C6
:101F30001A408282704721B1828A42F0080282826E
:101F400004E0828A4FF6F7731A408282704721B10B
:101F5000828942F40042828103E08289C2F30E0248
:101F60008281704721B1828A42F40062828204E059
:101F7000828A4FF2FF731A4082827047828A4FF63C
:101F8000FB731A408282828A0A438282704721B19F
:101F9000828A42F00202828204E0828A4FF6FD7356
:101FA0001A408282704702460020B1F5007F00D1BE
:101FB00000BF13880B4201D0012000E000207047D1
:101FC00001F40072B2F5007F00D100BFCA43028065
:101FD000704770B502460023002400250020A1F5BB
:101FE00010666A3E00D100BFC1F3421501F01F0424
:101FF000012606FA04F4012D02D19689344006E048
:10200000022D02D1168A344001E0968A34400B1228
:10201000012606FA03F31688334014B10BB10120F0
:1020200000E0002070BD10B500220023A1F510646F
:102030006A3C00D100BF0A1201249440A3B2DC43E1
:10204000048010BD003801400044004000480040BA
:10205000004C004000500040EFF3108072B6704713
:1020600080F3108870471D484FF0FF010170002079
:1020700080F309881A48012101701A484FF08051F5
:10208000016062B6FEE717484FF08051016070476B
:1020900014484FF080510160704772B6EFF3098029
:1020A00028B1203880E8F00F0F490968086000B5B2
:1020B0000E4880475DF804EB0D480E490A7802701F
:1020C00009480D490A680260106890E8F00F203056
:1020D00080F309884EF0040E62B6704722ED00E0EE
:1020E000B205002004ED00E0B8050020293E0008FC
:1020F000A7050020A8050020C005002001460020FB
:1021000002E0491C421CD0B20A78002AF9D170477B
:102110002DE9F04105460E461446002725B9042056
:1021200020700020BDE8F0811EB90C202070002036
:10213000F8E7F748007818B1112020700020F1E787
:102140002878012808D0022807D0032802D00428C4
:1021500004D100E000BF00BF00BF03E001202070F9
:102160000020DFE700BFFFF777FF074668693060B0
:102170003068FFF7C3FF80463846FFF771FF002045
:1021800020704046CEE72DE9F04105460E46144644
:1021900000271DB904202070BDE8F08116B90C207D
:1021A0002070F9E7DA48007810B112202070F3E7C8
:1021B0002878012808D0022807D0032802D0042854
:1021C00004D100E000BF00BF00BF02E0012020708A
:1021D000E2E700BFFFF740FF07466E613846FFF7B2
:1021E0003FFF0020207000BFD6E7F0B5024612F88E
:1021F000384F95785678383A0B4618680FE000F15A
:102200000B073F5DB74300F10B0C0CF804706746F9
:102210003F5D17B9877AAF4387721B1D1868002886
:10222000EDD1F0BDBB49BC4A1278885CBB49095C62
:10223000B84A515C01EBC001B94A1170704710B542
:102240000024FFF709FF0446B1480078F8B9B54803
:102250000078E0B9FFF7E6FFB348B149097850F8D4
:102260002100B2490860AE480078B1490978884237
:102270000DD0AE480068C06B401CAC490968C8630B
:10228000AC480068401CAB490860FFF7FCFE2046E4
:10229000FFF7E6FE10BD70B501460024A64D2D687F
:1022A000EC61A54C246821620B4618681BE0A24C27
:1022B000246894F8385000F10B04645D9E4D2D683D
:1022C00095F839502C439C4D2D6895F8386000F1F5
:1022D0000B05AC55847A984D2D6895F83A502C43EF
:1022E00084721B1D18680028E1D1934C246894F86F
:1022F00038208A4CA45C904D2D6895F83950AC4339
:10230000864DAC542C46A45C44B98B4C246894F89C
:102310003A50814C2478AC437F4D2C7070BD2DE930
:10232000FF4F83B081460E461546109F0020009057
:10233000B9F1000F05D104203870002007B0BDE8C6
:10234000F08FD9F8000018B9042038700020F5E7A4
:102350001EB9042038700020F0E71DB90420387041
:102360000020EBE700203060CA46DAF8004015E0B4
:102370002078062807D2DFE800F0060405030708E6
:1023800007E006E005E000BF00BF01203870002034
:10239000D4E700BF0AF1040ADAF80040002CE7D1C4
:1023A0005B48007818B1022038700020C6E75D480D
:1023B000007818B10D2038700020BFE7FFF74CFE01
:1023C00000900020029083460190CA46DAF800404F
:1023D00066E02078062853D2DFE800F052172A037F
:1023E0005354208960B12089401E208110C60120ED
:1023F0000290002001C50BF101001FFA80FB03E0F1
:10240000019840F00100019045E0606858B16068B3
:1024100001C50020606010C6012002900BF1010090
:102420001FFA80FB03E0019840F00200019032E0C7
:10243000D4F80480B8F81600E8B1D8F81010081DD8
:10244000C8F81000086801C5D8F80810D8F81000BE
:10245000884203D1D8F80400C8F81000B8F8160074
:10246000401EA8F8160010C6012002900BF10100D2
:102470001FFA80FB03E0019840F0040001900AE09D
:1024800000BF00BF0098FFF7EBFD00203060012087
:102490003870584652E700BF0AF1040ADAF80040E3
:1024A000002C96D10298012808D1002030600098B5
:1024B000FFF7D6FD0020387058463FE71E480068F9
:1024C00090F83400019941F0800108431A490968E5
:1024D00081F8340000201849096881F83500164950
:1024E0000698096808634846FFF7D5FE0098FFF78D
:1024F000B7FDFFF7A4FEFFF7AFFD00900E480068A0
:1025000090F83500D0B1012831D002282ED116E044
:10251000A50500201ABE0008A9050020AA05002074
:10252000A8050020A605002030300020C0050020AE
:10253000A70500208C050020B805002000BFFE483C
:102540000068C4693CB110C6002030600BF1010086
:102550001FFA80FB09E00120F749096881F835007E
:102560004946F5480068FFF740FE06E000BF4946CF
:10257000F1480068FFF739FE00BF00BFEE48006871
:1025800090F8350020B1012828D0022825D11FE07D
:10259000207806280DD2DFE800F00C0607030D0EA8
:1025A000002001C510E000BFE3480068406A01C593
:1025B0000AE000BF00BF0098FFF752FD0020306026
:1025C000012038705846B9E600BF002038700AE094
:1025D000002001C50E20387005E000BF002001C5B5
:1025E0000A20387000BF00BF0020D349096881F875
:1025F0003400D149096881F83500CF490968C861BC
:10260000CD4909680862CC49096848620098FFF71B
:1026100027FD584692E67CB5002514E06946284619
:1026200001F06DF9064666B9C44850F8254044B13A
:10263000012C06D0D4E9020100EB8100A0640198CE
:10264000E064681CC5B23F2DE8D97CBD002400BF02
:1026500002E0142001F098FAB94800780028F8D078
:10266000B84800686421B0FBF1F0B649086008463C
:10267000006828B90020B4490870FF2001F08AF9E9
:1026800000BFFFF7E9FC0446B0480068B0490860A5
:102690000020AE4908602046FFF7E2FCAC48006825
:1026A000A8490968B0FBF1F0C0F16400A6490870C0
:1026B00001F069FBFFF7AFFF0A2001F065FAE0E7E0
:1026C00000B587B0032000214022A24BCDE90132A2
:1026D000CDE903104FF6FE703E239E4AFC32009077
:1026E000AFF2970000F0F6FE06AA9BA13E2001F093
:1026F00079F807B000BD002400BF00BFFFF7ACFCB5
:10270000044692480068401C904908602046FFF744
:10271000A7FC01F034FBF1E700B587B003200021EE
:102720002022914BCDE90132CDE903104FF6FF7025
:102730003F238D4A7C320090AFF2450000F0CAFE84
:1027400006AA8AA13F2001F04DF807B000BD04E0C1
:10275000002200F8012B4A1E91B20029F8D17047DF
:1027600070B54FF4F0718548FFF7F1FF002411E0D8
:10277000601C85B204EB4400804901EBC00305EB0B
:10278000450001EBC006002018705E607CA0586117
:10279000601C84B2132CEBD304EB4400774901EBAB
:1027A000C00300201870586075A05861084675492C
:1027B000086070BD70B54FF4F2617348FFF7C7FF52
:1027C0004FF480715D48FFF7C2FF002413E0601CE6
:1027D000C5B204EB440000EBC4006B4901EBC0033D
:1027E00005EB450000EBC50001EBC0065E6164A08F
:1027F0001865601CC4B2152CE9D304EB440000EB4F
:10280000C400614901EBC003002058615CA0186559
:1028100000205E4908605C485D49086070BD002189
:102820005C4A1170002004E000215B4A1154411CF5
:10283000C8B20828F8D30021584A1170584A1170BC
:10284000584A11603C4A11607047002056490860A0
:10285000564908705649087056490870564908701C
:1028600056490860394908603949086035490860A7
:1028700033490870704710B501F070FAFFF7E5FFB3
:10288000FFF7CDFFFFF796FFFFF76AFF01F0AEFFFE
:1028900002F0D9F802F005FCFFF73EFFFFF710FF4A
:1028A00002F00FFF01F05EFA01F0EEFA10BD4248AF
:1028B0000078012808D13D480078FF2804D23B4821
:1028C0000078401C39490870704710B500243A4818
:1028D0000078012876D1FFF7BFFB04463348007823
:1028E00020B132480078401E304908702F480078E7
:1028F000F8B92F480078E0B9FFF794FC0F48284951
:10290000097850F8210027490860254800782349B4
:10291000097888420DD023480068C06B401C2149CB
:102920000968C86325480068401C24490860FFF70F
:10293000AFFB204644E045E0B805002030300020E1
:10294000A40500209C05002098050020B405002067
:10295000A0050020B02E002075432F4F532D49496C
:102960002053746174000000B02F002075432F4F76
:10297000532D49492049646C65000000802C0020DB
:102980003F0000009005002030310020C4050020E9
:10299000BC050020A9050020AA050020A7050020ED
:1029A000A8050020C0050020D4050020A5050020B2
:1029B000A6050020B3050020B20500208C050020EC
:1029C000FFF74EFB10BD10B50024FE48007801282B
:1029D00011D1FFF741FB0446FB48007840B9FB48A2
:1029E0000078FF2804D2F9480078401CF7490870A5
:1029F0002046FFF735FB10BD10B50024F1480078E4
:102A0000012821D1FFF728FB0446F0480078C0B127
:102A1000EE480078401EED4908700846007860B91D
:102A2000E948007828B92046FFF71AFBFFF707FCB2
:102A30000AE02046FFF714FB06E02046FFF710FBF4
:102A400002E02046FFF70CFB10BD10B5DD48007812
:102A500090B9FFF7E7FBDE480078DE490870DE48F2
:102A6000DB49097850F82100DC4908600846006815
:102A7000DB490860FFF7F7FA10BD10B5002402200B
:102A800001F082F8FFF7E8FA04460020D549086013
:102A90002046FFF7E5FA0A2001F076F8FFF7DCFAA6
:102AA0000446D0480068D04908600120CF4908702A
:102AB0002046FFF7D5FA10BD70B5002601F0BEF92B
:102AC000FFF7CAFA0646CA480068401CC8490860B1
:102AD0003046FFF7C5FABB480078012853D1C548F6
:102AE000007820B1012804D0022809D103E0012593
:102AF0000BE0002509E001250120BE49087004E033
:102B000001250020BB49087000BF00BF05B970BD9A
:102B1000B948046833E0FFF79FFA0646206B50B3CC
:102B2000206B401E2063206B28BB94F8340000F01B
:102B3000370040B114F8340F00F0C80020700120B5
:102B40006070343C02E0002084F8350094F83400D2
:102B500000F0080078B93834A078A849097808430B
:102B6000A64908702078A649085C6178084314F8E3
:102B70003819A34A505464693046FFF771FA94F843
:102B800036003F28C7D100BFC1E740F2231070478D
:102B9000704710B590F8382001F10B039B5C90F85A
:102BA0003940A34301F10B04A35423469B5C23B992
:102BB0008B7A90F83A40A3438B7210BD2DE9F04F09
:102BC00005460F4690469946A87A8E490E5C05F157
:102BD0000B00805D11F800B00BEBC60000F0FF0A9F
:102BE0007D4850F82A4000202434E0602760207C93
:102BF00020EA0800207484F81190207C243C00F026
:102C0000080068B994F83A007C49097808437B4980
:102C100008707B48805D94F83910084378498855DE
:102C200029462046FFF7B5FF206A20B12046216AD9
:102C3000FFF7DBFAE5615046BDE8F08F10B5684A52
:102C40001268D061664A126892F8383000F10B02BF
:102C5000D25C634B1B6893F839301A43604B1B6896
:102C600093F8384000F10B031A55827A5C4B1B68CD
:102C700093F83A301A438272594A126892F838101F
:102C80005F4A525C564B1B6893F839309A435C4B51
:102C90005A541A46525C42B9514A126892F83A3074
:102CA000564A12789A43554B1A7010BD01460022BD
:102CB0008A72002005E0002301F10B021354421C2C
:102CC000D0B20828F7D3704705E011F8013B00F8AF
:102CD000013B531E9AB2002AF7D170472DE9F84FF5
:102CE00005460F4690469946DDE90AAB0020009064
:102CF000FFF7B2F9009044480468002C60D01C34FF
:102D000054F8080C404908600098FFF7A9F944F806
:102D10001C7CA576002020766076606144F818BCA3
:102D200044F810AC44F8148C0C9824F80C0C24F8DB
:102D30000A9C0020E077E810207705F00700E07695
:102D4000217F01208840A077E17E012088406077C4
:102D5000002020606060E060A0602062A06260628D
:102D6000E0622063AFF2E83060631C3C002606E0BE
:102D7000002104F1540040F82610701CC6B2002E49
:102D8000F6D0204601F054F8204600F0ECFFFFF7A3
:102D900063F90090104840F82540174800686061CA
:102DA0000020A0611448006810B1134800688461D5
:102DB000114804603834A07810490978084325E0A8
:102DC0003AE00000B2050020A5050020A60500207D
:102DD000A8050020A705002030300020C0050020F5
:102DE000B8050020B40500209C050020A4050020A3
:102DF000D4050020C8050020C4050020A905002036
:102E0000AA0500201ABE0008BC0500200D49087064
:102E100020780D49085C6178084314F838190A4A8B
:102E200050540A480078401C084908700098FFF781
:102E300017F90020BDE8F88F0098FFF711F942203C
:102E4000F8E70000A9050020AA050020B30500202E
:102E500070B5044600260CB9002070BD207801280A
:102E600001D00020F9E7FFF7F7F806466568002073
:102E700060603046FFF7F4F82846EEE770B5054687
:102E80000026F948007808B1002070BDFFF7E4F88B
:102E90000646F6480468006820B1F44800684068B7
:102EA000F24908603046FFF7DBF84CB10120207092
:102EB000002020816560EEA060612046FFF7F6FEED
:102EC0002046E2E72DE9F0470446884615464FF0D4
:102ED000000924B9042028702046BDE8F087207836
:102EE000012803D0012028702046F6E7DE4800784C
:102EF00018B10F2028702046EFE7FFF7ADF88146A4
:102F0000A07A08B1012700E00027B8F1000F03D034
:102F1000B8F1010F3AD119E08FB9D5A06061002056
:102F20002070D2480068606000202081CF48046093
:102F30004846FFF795F800202870002605E048462F
:102F4000FFF78EF849202870264626E005E000238A
:102F5000022219462046FFF731FEA07A0028F6D15A
:102F6000C3A0606100202070C0480068606000203D
:102F70002081BE4804604846FFF772F8012F01D156
:102F8000FFF75DF900202870002606E04846FFF7AD
:102F900067F807202870264600BF00BF30469CE730
:102FA0002DE9F04105460F4614464FF0000825B9BB
:102FB000042020700020BDE8F0812878012803D08B
:102FC000012020700020F6E7A748007818B1022001
:102FD00020700020EFE7A748007818B10D2020707E
:102FE0000020E8E7FFF738F880466E6846B1002019
:102FF00068604046FFF734F8002020703046DAE77A
:103000009D48006890F8340040F002009A49096831
:1030100081F8340000209849096881F83500964805
:10302000006807632846FFF709FE4046FFF718F8D7
:10303000FFF705F9FFF710F880468F48006890F811
:10304000350020B101280DD002280AD105E08A48B8
:103050000068466A002020700DE000260E202070D7
:1030600009E000BF294684480068FFF792FD00266A
:103070000A20207000BF00BF00207F49096881F846
:1030800034007D49096881F835007B490968C861C9
:103090007949096808627849096848624046FEF73C
:1030A000DFFF304687E72DE9F04104460F4615461D
:1030B0004FF0000824B9042028700020BDE8F081FA
:1030C0002078012803D0012028700020F6E7FEF7C1
:1030D000C3FF8046A07A20B300267FB1012F0CD118
:1030E00007E002231A4600212046FFF767FD701C07
:1030F000C6B2A07A0028F4D109E000BF02231A4624
:1031000000212046FFF75AFD701CC6B200BF00BF69
:103110004046FEF7A5FFFFF792F80E2028703046D4
:10312000CCE74046FEF79CFF0020287000BFC5E7B3
:1031300070B504460D4600260CB9042070BD0DB9CB
:103140000320FBE72078012801D00120F6E7FEF7F5
:1031500083FF0646A07A60B100230222294620465A
:10316000FFF72CFD3046FEF77BFFFFF768F80020E5
:10317000E4E7606820B13046FEF772FF1420DDE717
:1031800065603046FEF76CFF0020D7E72DE9F0417F
:1031900004460D461646002714B90420BDE8F08108
:1031A0000DB90320FAE72078012801D00120F5E7C6
:1031B000FEF752FF0746A07AE8B106F0010050B1D1
:1031C00005E00023022229462046FFF7F7FCA07AFB
:1031D0000028F6D105E00023022229462046FFF709
:1031E000EDFC3846FEF73CFF06F0040008B9FFF797
:1031F00026F80020D2E7606820B13846FEF730FF9D
:103200001420CBE765603846FEF72AFF0020C5E7AB
:103210002DE9F04704460D464FF0000914B904208B
:10322000BDE8F0870DB90920FAE72078012801D020
:103230000120F5E7FEF710FF8146A07A287304F11C
:103240000B0705F10408002605E017F8010B08F844
:10325000010B701CC6B2082EF7D360682860484680
:10326000FEF7FEFE0020DBE7A5050020900500200C
:103270003F000000A6050020B80500202DE9F04F12
:1032800085B08146884600200090B9F13F0F06D3F3
:10329000B9F1FF0F03D02A2005B0BDE8F08FB8F1D7
:1032A0003F0F01D32A20F7E7FEF7D6FE0090F9483A
:1032B00050F8280020B10098FEF7D2FE2820EBE756
:1032C000B9F1FF0F03D1F448006890F83690F14847
:1032D00050F8295025B90098FEF7C2FE2920DBE7F7
:1032E000012D04D10098FEF7BBFE4320D4E74FEA3E
:1032F000E80708F0070003900120B84000F0FF0A3B
:1033000001210398814001F0FF0B0020E14941F8C1
:103310002900084640F8285015F8386FA878029020
:103320006878383D0190DD48815D01980140D1B158
:10333000DA48805D01998843D84988550846805D00
:1033400028B9D748007802998843D5490870D448ED
:10335000007840EA0A00D2490870D048C05D40EACF
:103360000B00CE49C855EC69D4B104F10B00805D67
:103370000199884304F10B0188550846805D18B90E
:10338000A07A02998843A072A07A40EA0A00A0724B
:1033900004F10B00C05D40EA0B0004F10B01C855BD
:1033A000286A30B3286A0490049804681FE004F186
:1033B0000B00805D0199884304F10B018855084694
:1033C000805D18B9A07A02998843A072A07A40EA79
:1033D0000A00A07204F10B00C05D40EA0B0004F18A
:1033E0000B01C8550498001D049004980468002C33
:1033F000DDD185F8368085F83870039885F8370078
:1034000085F83AA085F839B00098FEF729FEA5485E
:103410000078012801D1FEF712FF00203CE72DE9DA
:10342000FE4F06460F4690461C464FF000093F2CC3
:1034300002D92A20BDE8FE8FFEF70EFE81469A488B
:10344000007820B14846FEF70BFE3C20F2E7914899
:1034500050F8240060BB01208E4941F82400484602
:10346000FEF7FEFD002342463946304600F08FFC51
:103470008246002000900190034602465146029089
:103480002046FFF72BFC054635B986480078012811
:103490000CD1FEF7D4FE09E0FEF7DEFD81460020E8
:1034A0007C4941F824004846FEF7DAFD2846C1E78A
:1034B0004846FEF7D5FD2820BCE702F0010343B1E2
:1034C00002F002032BB102E0491E002308C00029CC
:1034D000FAD170472DE9F04F85B081468A46934670
:1034E0001C46DDE90F78129D002003903F2C03D984
:1034F0002A2005B0BDE8F08FFEF7AEFD03906A48C4
:10350000007820B10398FEF7ABFD3C20F1E761485D
:1035100050F8240088BB01205E4941F8240003983C
:10352000FEF79EFD2A4641463846FFF7C6FF2B466A
:103530005A465146484600F02AFC04901198CDE9BD
:10354000008002953A4620460E9B0499FFF7C6FB81
:10355000064636B95348007801280CD1FEF76FFEB5
:1035600009E0FEF779FD039000204A4941F8240064
:103570000398FEF775FD3046BBE7FFE70398FEF7BB
:103580006FFD2820B5E72DE9F041054600274648A4
:10359000007810B14020BDE8F0813F2D01D13E20E0
:1035A000F9E73F2D03D3FF2D01D02A20F3E7FEF7E3
:1035B00053FD0746FF2D03D13748006890F8365079
:1035C000344850F8254024B93846FEF749FD4320D9
:1035D000E1E7012C04D13846FEF742FD3D20DAE751
:1035E00014F8380F2D49085C6178884321782B4AFC
:1035F000505414F838091146085C30B994F83A1060
:1036000027480078884326490870E06918B12046A9
:10361000E169FFF7BEFA206A18B12046216AFEF779
:10362000E4FDA66A16B1304600F08AFD0020206352
:1036300084F8340084F835001C480078FF2804D250
:103640001A480078401C194908703846FEF708FDF2
:10365000FFF79EFAFEF700FD07461448007820B1F8
:1036600012480078401E11490870204600F081FB86
:103670000F480078401E0E4908700020054941F8A7
:103680002500A069C0B900206169886109496069A5
:10369000086017E030300020B8050020AA0500209F
:1036A000A9050020B2050020A5050020A6050020E0
:1036B000B3050020C4050020D4E905014861D4E920
:1036C00005108861F74800686061F6480460F6A05C
:1036D00020653846FEF7C4FCF4480078012801D183
:1036E000FEF7ADFD002056E72DE9F0410446002726
:1036F0003F2C02D13E20BDE8F0813F2C03D3FF2CAC
:1037000001D02A20F7E7FF2C0BD1FEF7A5FC0746D6
:10371000E748006890F83B603846FEF7A1FC304669
:10372000E9E7FEF799FC0746E24850F8245025B92E
:103730003846FEF795FC4320DDE7012D04D13846DD
:10374000FEF78EFC3D20D6E73F2085F83B0038464B
:10375000FEF786FC0020CEE72DE9F04705460E4631
:1037600014464FF000083F2D06D9FF2D04D02A2023
:1037700020700020BDE8F0871EB90C2020700020CA
:10378000F8E7CD48007818B1112020700020F1E74B
:10379000FEF762FC8046FF2D03D1C548006890F813
:1037A0003650C44850F8257037B94046FEF758FCEB
:1037B000432020700020DDE7012F06D14046FEF7B0
:1037C0004FFC432020700020D4E7386D3060306813
:1037D000FEF794FC81464046FEF742FC0020207034
:1037E0004846C7E72DE9F04105460F4614464FF01D
:1037F00000083F2D05D9FF2D03D02A202070BDE8F9
:10380000F08117B90C202070F9E7AB48007810B1AF
:1038100012202070F3E7FEF71FFC8046FF2D03D136
:10382000A348006890F83650A24850F825602EB999
:103830004046FEF715FC43202070E0E7012E05D13D
:103840004046FEF70DFC43202070D8E73765404620
:10385000FEF706FC0020207000BFD0E770B50546DB
:1038600000263F2D01D32A2070BDFEF7F5FB06464A
:10387000904850F8254024B93046FEF7F1FB462029
:10388000F2E7012C04D13046FEF7EAFB4320EBE7D8
:1038900094F8340000F0080060B314F8340F00F01E
:1038A000F700207014F83409F8B9206BC8B938341F
:1038B000A0788249097808438049087020788049B7
:1038C000085C6178084314F838197D4A5054304632
:1038D000FEF7C6FB75480078012809D1FEF7AFFC5A
:1038E00006E03046FEF7BCFB02E03046FEF7B8FBD0
:1038F0000020B9E73046FEF7B3FB4420B4E72DE9DA
:10390000F04706460C464FF0000A3F2E04D9FF2E22
:1039100002D02A20BDE8F0870CB90920FAE7002080
:1039200020606060FEF798FB8246FF2E03D160485E
:10393000006890F836605F4850F8265025B9504628
:10394000FEF78EFB4320E5E7012D04D15046FEF73C
:1039500087FB4320DEE7287C00F0010020B95046B9
:10396000FEF77EFB4520D5E70027D5F80C90D5F86B
:1039700008805046FEF774FB00E07F1C58F8041BDB
:103980000029FAD0B8002060A9EB07008000606031
:103990000020BFE72DE9F04105464FF000083F2D1C
:1039A00002D14720BDE8F0813F2D03D3FF2D01D088
:1039B0002A20F7E7FEF750FB8046FF2D05D13C4853
:1039C000006890F83650012608E03948006890F801
:1039D0003600A84201D1012600E00026354850F803
:1039E000254024B94046FEF73BFB4820DAE7012C8E
:1039F00004D14046FEF734FB4320D3E794F83870F7
:103A00002F48C05D94F8391088432D49C8550846A1
:103A1000C05D30B994F83A102848007888432749A7
:103A2000087094F8340040F0080084F834004046F0
:103A3000FEF716FB012E01D1FEF701FC0020B1E7D5
:103A40002DE9F04104460E4600273F2C04D9FF2CF7
:103A500002D02A20BDE8F0810EB90920FAE7FEF76E
:103A6000FBFA0746FF2C03D11148006890F8364056
:103A7000104850F8245025B93846FEF7F1FA2920AD
:103A8000E8E7012D04D13846FEF7EAFA4320E1E7E2
:103A9000582229463046FFF717F93846FEF7E0FA74
:103AA0000020D7E7BC0500203F000000B205002041
:103AB000B805002030300020A5050020A905002011
:103AC000AA0500202DE9F04704460E4615464FF0A2
:103AD00000093F2C06D3FF2C04D02A202870002098
:103AE000BDE8F0871EB1082028700020F8E7FEF737
:103AF000B3FA8146FF2C02D12148076802E0214831
:103B000050F8247007F1540050F826804846FEF71C
:103B1000A7FA002028704046E2E72DE9F047044666
:103B20000E4690461D464FF000093F2C05D3FF2C52
:103B300003D02A202870BDE8F08716B1082028702D
:103B4000F9E7FEF789FA8146FF2C02D10C48076895
:103B500002E00C4850F8247007F1540040F8268029
:103B60004846FEF77DFA0020287000BFE3E710B555
:103B70000348006801F02EFEFF20FFF704FD10BD92
:103B8000B80500203030002070B5054600266C488E
:103B9000007800B170BD6B48007800B1FAE71DB342
:103BA000FEF75AFA06466848006890F838406748B9
:103BB000005D6549096891F83910884363490855E3
:103BC0000846005D40B96048006890F83A106048C7
:103BD000007888435E4908705B480068056330469A
:103BE000FEF73EFAFEF72BFB00BFD3E72DE9F041CD
:103BF00007460C4615461E465148007810B1552020
:103C0000BDE8F0814F48007808B13220F8E727B9C5
:103C10001CB915B90EB95420F2E73B2C01D951203B
:103C2000EEE73B2D01D95220EAE7B6F57A7F01D3C2
:103C30005320E5E7701D642148434FF47A71B0FBCF
:103C4000F1F14FF461607843C4EB041200EB8200A1
:103C5000284400EBC00202EB001001EB8008404654
:103C6000FFF792FF0020CBE770B5054600263F2DF9
:103C700001D32A2070BDFEF7EFF90646354850F80B
:103C8000254024B93046FEF7EBF94320F2E7012C3A
:103C900004D13046FEF7E4F94320EBE7206B20B96E
:103CA0003046FEF7DDF95020E4E70020206394F869
:103CB000340000F0370040B114F8340F20F0370022
:103CC000207001206070343C02E0002084F8350050
:103CD00094F8340000F00800A8B93834A0781C49E2
:103CE000097808431A49087020781849085C6178F7
:103CF000084314F83819154A50543046FEF7B0F905
:103D0000FEF79DFA02E03046FEF7AAF90020B1E77F
:103D100070B50025FEF7A0F905460F48046828464F
:103D2000FEF79EF9204670BD70B504460025FEF7EB
:103D300093F90546084804602846FEF791F970BDDE
:103D4000A5050020A6050020B8050020AA05002032
:103D5000A905002030300020D4050020002048496B
:103D600008807047704710B50446204601F033FDC7
:103D700010BD10B50446204601F033FD10BD10B54E
:103D800001F030FD10BD10B501F02EFD10BD70B575
:103D9000044610464FF080750560051F28462C60CC
:103DA0006FF00106051F28462E604FF01236051FE2
:103DB00028462E604FF00336051F28462E604FF030
:103DC0000236051F28462E607610051F28462E60F5
:103DD000051F284629604FF01136051F28462E6022
:103DE0004FF01036051F28462E604FF00936051F8C
:103DF00028462E604FF00836051F28462E604FF0EB
:103E00000736051F28462E604FF00636051F284648
:103E10002E604FF00536051F28462E604FF0043601
:103E2000051F28462E6070BD10B501F0DEFC10BDE8
:103E300010B50446204601F0DCFC10BD10B501F0C1
:103E4000D9FC0F480088401C0D49088008460088AE
:103E50000A2803D30020088001F0D8FB10BD10B55C
:103E6000FEF7FAF8044607480078401C0549087038
:103E70002046FEF7F5F8FEF71FFEFEF726FD10BD03
:103E8000EC050020A50500201D481E481E481F48BF
:103E90001F482048204821482148224822482348DA
:103EA00023482448244825482548264826482748AA
:103EB000274828482848294829482A482A482B487A
:103EC0002B482C482C482D482D482E482E482F484A
:103ED0002F4830483048314831483248324833481A
:103EE00033483448344835483548364836483748EA
:103EF0003748384838483948394800BF70470000CB
:103F00001CBF000820BF000826BF000828BF00080B
:103F100024BF00082ABF00082CBF00082EBF0008DD
:103F200030BF000832BF000834BF000836BF0008A9
:103F300038BF00083ABF00083CBF00083EBF000879
:103F400040BF000842BF000844BF000846BF000849
:103F500048BF00084ABF00084CBF00084EBF000819
:103F600050BF000852BF000854BF000856BF0008E9
:103F700058BF00085ABF00085CBF00085EBF0008B9
:103F800060BF000862BF000864BF000866BF000889
:103F900068BF00086ABF00086CBF00086EBF000859
:103FA00072BF000874BF000876BF000878BF000821
:103FB00098390020183D00207CBF00087EBF000813
:103FC00080BF000882BF000884BF000886BF0008C9
:103FD00088BF00088ABF00088CBF00087ABF0008AD
:103FE0008EBF00082DE9F05F04460F4691461E463D
:103FF0004FF0000B24B96E2030700020BDE8F09F18
:104000002078052803D0012030700020F6E709F061
:10401000800ABAF1000F04D029F080094FF001089E
:1040200001E04FF0000800203070FEF715F88346DD
:10403000B9F1000F2CD0B9F1010F3BD0B9F1020F4B
:1040400003D0B9F1030F46D111E0208900EA07053A
:10405000BD4206D1B8F1010F05D12089A8432081C6
:1040600001E0702030705846FDF7FAFF3AE02089F1
:1040700000EA070535B1B8F1010F05D12089A84341
:10408000208101E0702030705846FDF7E9FF29E0FB
:10409000208927EA0005BD4206D1B8F1010F05D1FC
:1040A00020892843208101E0702030705846FDF7B8
:1040B000D7FF17E0208927EA000535B1B8F1010FD5
:1040C00005D120892843208101E0702030705846B6
:1040D000FDF7C6FF06E05846FDF7C2FF00256F203A
:1040E000307000BF00BF284688E72DE9F041064642
:1040F0000D460027F748007820B1102028700020D6
:10410000BDE8F081FDF7A8FF0746F348046884B1D5
:1041100000684068F0490860052020702681002072
:104120006060EEA0E0603846FDF79AFF002028703E
:1041300004E03846FDF794FF722028702046DFE740
:1041400030B501464A6808682AB9CC68606028B171
:104150000025456002E0106000B142608B680025D8
:104160009D6230BDF0B506460F46B46800202C3481
:1041700060602780207A00F0DF00207200206072EB
:10418000207A2C3C88B93834A078D549097808437E
:10419000D34908702078D349085C6178084314F843
:1041A0003819D04A5054012500E000253046FFF769
:1041B000C7FF2846F0BD2DE9F0470446894615465D
:1041C0004FF0000A24B96E2028702046BDE8F08721
:1041D000C048007818B10F2028702046F6E72078F4
:1041E000052803D0012028702046EFE7FDF734FFB3
:1041F0008246606808B1012700E00027B9F1000F8E
:1042000003D0B9F1010F3CD119E08FB9B3A0E06040
:1042100000202070B0480068606000202081AE4817
:1042200004605046FDF71CFF00202870002605E0C2
:104230005046FDF715FF49202870264628E0D4F89F
:10424000048005E000214046FFF78CFFD8F800808D
:10425000B8F1000FF6D1A1A0E060002020709E48C8
:1042600000686060002020819B4804605046FDF794
:10427000F7FE012F01D1FDF7E2FF00202870002694
:1042800006E05046FDF7ECFE07202870264600BFEA
:1042900000BF30469AE72DE9F04105460E46144628
:1042A000002725B96E2020700020BDE8F0811EB9DE
:1042B0000C2020700020F8E78648007818B1112003
:1042C00020700020F1E7FDF7C7FE07462878052893
:1042D00006D03846FDF7C4FE012020700020E4E738
:1042E000E86830603068FDF709FF80463846FDF722
:1042F000B7FE002020704046D7E72DE9F041054683
:104300000E46144600271DB96E202070BDE8F081CE
:1043100016B90C202070F9E76E48007810B1122011
:104320002070F3E7FDF798FE07462878052805D0AA
:104330003846FDF795FE01202070E7E7EE6038462D
:10434000FDF78EFE0020207000BFDFE7F0B51446B9
:10435000059E654F3F6897F8347047F02007DFF8F7
:1043600088C1DCF800C08CF834700027DFF878C111
:10437000DCF800C08CF835705B4F3F683E635A4FE5
:104380003F68B9620C828B74574F3F688F604768F3
:104390000F6000274F60C860456805B169604160E3
:1043A000514F3F6897F838204E4FBF5CDFF838C157
:1043B000DCF800C09CF839C027EA0C07DFF824C1FC
:1043C0000CF802706746BF5C5FB9474F3F6897F8CB
:1043D0003AC0434F3F7827EA0C07DFF804C18CF856
:1043E0000070F0BD2DE9F04F89B005460F469146AB
:1043F0009A46129E002002902DB96E203070002047
:1044000009B0BDE8F08F3348007818B10220307051
:104410000020F5E73548007818B10D2030700020F5
:10442000EEE72878052803D0012030700020E7E768
:1044300009F0800BBBF1000F04D009F07F094FF0A9
:10444000010801E04FF00008FDF706FE0290B9F107
:10445000000F59D0B9F1010F79D0B9F1020F03D093
:10446000B9F1030F72D120E0288900EA0704BC42A9
:104470000FD1B8F1010F02D12889A04328811A4831
:10448000006884850298FDF7EBFD0020307020461F
:10449000B6E74B463A4604A92846CDF800A0FFF7F8
:1044A00055FF0298FDF7DCFD79E0288900EA070452
:1044B000F4B1B8F1010F02D12889A04328810A483C
:1044C000006884850298FDF7CBFD002030702046FF
:1044D00096E70000A5050020940500203F0000009D
:1044E000A9050020AA050020B8050020A605002087
:1044F0004B463A4604A92846CDF800A0FFF726FF10
:104500000298FDF7ADFD4AE0288927EA0004BC4285
:104510000FD1B8F1010F02D1288920432881C74863
:10452000006884850298FDF79BFD002030702046CE
:1045300066E74B463A4604A92846CDF800A0FFF7A7
:1045400005FF0298FDF78CFD29E000E01FE02889B7
:1045500027EA00047CB1B8F1010F02D12889204379
:104560002881B648006884850298FDF779FD00200F
:104570003070204644E74B463A4604A92846CDF819
:1045800000A0FFF7E3FE0298FDF76AFD07E002983E
:10459000FDF766FD00246F203070204630E700BF35
:1045A000FDF74DFEFDF758FD0290A448006890F815
:1045B000350020B3A148006890F835000390002032
:1045C0009E49096881F8350004A8FFF7B9FD00206D
:1045D0009A49096881F834000298FDF741FD0024EA
:1045E0000398012805D0022802D10E20307003E084
:1045F00000BF0A20307000BF00BF204600E78F4890
:104600000068848DB8F1010F1ED1B9F1000F0ED0F2
:10461000B9F1010F0CD0B9F1020F03D0B9F1030FBA
:104620000AD100E000BF2889A04328810BE000BF29
:1046300028892043288106E00298FDF711FD6F20AC
:1046400030700020DCE600BF0298FDF709FD002075
:1046500030702046D4E670B50025FDF7FDFC054618
:1046600076480068848D2846FDF7FAFC204670BD28
:104670002DE9FC5F0446894692461E4600200090C4
:1046800024B96E2030700020BDE8FC9F20780528FA
:1046900003D0012030700020F6E7FDF7DDFC00902C
:1046A000BAF1000F03D0BAF1010F0AD104E020895A
:1046B00020EA090020810BE0208940EA09002081DE
:1046C00006E00098FDF7CCFC712030700020DBE79D
:1046D00000BF4FF0000B656855E0A87C40B301288F
:1046E00038D0022802D0032844D111E02089298A39
:1046F00000EA0107288AB84209D139462846FFF75F
:1047000031FD8046B8F1010F01D14FF0010B38E0C7
:104710002089298A00EA01074FB139462846FFF768
:1047200021FD8046B8F1010F01D14FF0010B28E0C7
:10473000288A218920EA0107288AB84209D1394606
:104740002846FFF70FFD8046B8F1010F01D14FF069
:10475000010B16E0288A218920EA01074FB139466A
:104760002846FFF7FFFC8046B8F1010F01D14FF05A
:10477000010B06E00098FDF773FC6F2030700020FD
:1047800082E700BF2D68002DA7D10098FDF768FCD7
:10479000BBF1010F01D1FDF752FDFDF75DFC00906B
:1047A000208901900098FDF75BFC00203070019893
:1047B0006AE72DE9F04104460D46002724B96E2032
:1047C00028700020BDE8F0812078052803D0012062
:1047D00028700020F6E7FDF73FFC0746268938469B
:1047E000FDF73EFC002028703046EBE72DE9F04154
:1047F00050211348FDF7ABFF00250EE0681C86B280
:104800000F4800EB051400EB0617002020706760CE
:10481000AFF23830E060681C85B2042DEED3084852
:1048200000EB0514002020706060AFF25030E060B3
:10483000034804490860BDE8F0810000B805002085
:10484000602E0020940500202DE9FC5F05460F46F0
:1048500091461E460020009025B96220307000204D
:10486000BDE8FC9F05F0030018B162203070002005
:10487000F6E7022F03D25B2030700020F0E7B9F199
:10488000040F03D25C2030700020E9E7FDF7E4FB61
:1048900000907F480468006820B17D480068406847
:1048A0007B4908600098FDF7DBFB1CB95A2030708B
:1048B0000020D5E7AA46A846781E01904FF0000BCD
:1048C00005E0C844CAF80080C2460BF1010B01980C
:1048D0008345F6D30020CAF8000025606560276193
:1048E000E760C4F8089030702046B9E72DE9F04140
:1048F00004460D46002724B9602028700020BDE83A
:10490000F081FDF7A9FB0746206960B16668306851
:1049100060602069401E20613846FDF7A1FB002041
:1049200028703046EBE73846FDF79AFB5D2028708B
:104930000020E4E72DE9F04106460D461446002725
:1049400026B9602020700020BDE8F0811DB90C2040
:1049500020700020F8E74F48007818B1112020702F
:104960000020F1E7FDF778FB0746706928602868AA
:10497000FDF7C4FB80463846FDF772FB002020702F
:104980004046E1E72DE9F04105460E461446002772
:104990001DB960202070BDE8F08116B90C20207090
:1049A000F9E73C48007810B112202070F3E7FDF7DA
:1049B00053FB07466E613846FDF752FB002020701E
:1049C00000BFE8E770B504460D4600260CB960202C
:1049D00070BD0DB95F20FBE7FDF73EFB0646D4E94D
:1049E0000310884204D33046FDF73AFB5E20EFE720
:1049F0006068286065602069401C20613046FDF7D2
:104A00002FFB0020E4E770B505460C4600260DB9E3
:104A1000602070BD0CB96120FBE7FDF71DFB064669
:104A20002868206068686060A868A060E868E06046
:104A3000286920613046FDF713FBD4E90301401AD1
:104A400060610020E5E770B578211348FDF77FFE2F
:104A500000240EE004EB44000F4901EBC005601C8C
:104A600000EB400001EBC00068600CA06861601CB6
:104A700084B2042CEED304EB4400074901EBC005DB
:104A80000020686005A0686108460149086070BDA3
:104A9000CC050020A5050020C03800203F00000004
:104AA0002DE9F04106460D464FF0000826B90420D6
:104AB00028700020BDE8F0813078022803D0012062
:104AC00028700020F6E7FDF7C7FA80467468E08A90
:104AD00078B12169081D20610F68E08A401EE082DC
:104AE000A1682069884201D1606820610020287097
:104AF00002E01F20287000274046FDF7B1FA384633
:104B0000D8E72DE9F04106460F464FF00008FA4875
:104B1000007810B10020BDE8F081FDF79DFA8046D5
:104B2000F6480468006820B1F44800684068F3491A
:104B300008604046FDF794FAFCB1FDF78DFA804617
:104B4000EF480568D5B100680068ED490860404647
:104B5000FDF786FA6E6006EB8700A860EE602E61B6
:104B6000AF820020E8820220207000202081656052
:104B7000E4A060612046FEF799F808E0DF4800688D
:104B80006060DE4804604046FDF76AFA0024204673
:104B9000C1E72DE9F0470446894615464FF0000A63
:104BA00024B9042028702046BDE8F0872078022828
:104BB00003D0012028702046F6E7CF48007818B1CE
:104BC0000F2028702046EFE7FDF746FA8246A07ACC
:104BD00010B14FF0010801E04FF00008B9F1000FEB
:104BE00003D0B9F1010F49D121E0B8F1000F17D17D
:104BF000C4A060616668C24800683060C048066052
:104C000000202070BD480068606000202081BB4803
:104C100004605046FDF724FA00202870002705E0C4
:104C20005046FDF71DFA4920287027462DE005E083
:104C30000023042219462046FDF7C0FFA07A002871
:104C4000F6D1B0A060616668AD4800683060AC48DD
:104C5000066000202070A948006860600020208164
:104C6000A64804605046FDF7FBF9B8F1010F01D1E9
:104C7000FDF7E5FA00202870002706E05046FDF712
:104C8000EFF907202870274600BF00BF38468BE7A2
:104C900070B5054600260DB9042070BD287802289D
:104CA00001D00120F9E7FDF7D7F906466C68606886
:104CB000E060606820610020E0823046FDF7D0F9B6
:104CC0000020EAE72DE9F0470646884615464FF0F2
:104CD000000926B9042028700020BDE8F08730784C
:104CE000022803D0012028700020F6E782480078CF
:104CF00018B1022028700020EFE78348007818B12F
:104D00000D2028700020E8E7FDF7A6F981467468B9
:104D1000E08A98B12169081D20610F68E08A401E71
:104D2000E082A1682069884201D16068206148461C
:104D3000FDF796F9002028703846CEE773480068E2
:104D400090F8340040F004007049096881F834009C
:104D500000206E49096881F835006C480068C0F889
:104D600030803046FDF76AFF4846FDF779F9FDF7D8
:104D700066FAFDF771F981466448006890F83500DD
:104D800020B101280DD002280AD105E05F48006853
:104D9000476A002028700DE000270E20287009E0E7
:104DA00000BF314659480068FDF7F3FE00270A208E
:104DB000287000BF00BF00205449096881F8340002
:104DC0005249096881F8350050490968C8614F495E
:104DD000096808624D49096848624846FDF740F98C
:104DE00038467AE72DE9F04104460F4615464FF064
:104DF000000824B9042028700020BDE8F081207844
:104E0000022803D0012028700020F6E7FDF724F9DE
:104E10008046A07A20B300267FB1012F0CD107E095
:104E20000223042200212046FDF7C8FE701CC6B2F2
:104E3000A07A0028F4D109E000BF02230422002157
:104E40002046FDF7BBFE701CC6B200BF00BF404647
:104E5000FDF706F9FDF7F3F90E2028703046CCE790
:104E60004046FDF7FDF80020287000BFC5E72DE99A
:104E7000F04105460E46002715B90420BDE8F08133
:104E80002878022801D00120F8E7FDF7E5F8074669
:104E9000A87A60B10023042231462846FDF78EFE31
:104EA0003846FDF7DDF8FDF7CAF90020E6E76C6843
:104EB000E08AA18A884204DB3846FDF7D1F81E203B
:104EC000DCE7E168081DE0600E60E08A401CE082DB
:104ED000D4E90210884201D16068E0603846FDF7ED
:104EE000BFF80020CAE72DE9F04105460E4600272D
:104EF00075B90420BDE8F081A505002090050020CB
:104F0000D00500203F000000A6050020B8050020C5
:104F10002878022801D00120ECE7FDF79DF807462C
:104F2000A87A60B10023042231462846FDF746FEE8
:104F30003846FDF795F8FDF782F90020DAE76C684E
:104F4000E08AA18A884204DB3846FDF789F81E20F2
:104F5000D0E761682069884201D1A068206120699A
:104F6000001F206120690660E08A401CE08238460C
:104F7000FDF776F80020BDE72DE9F04105460F4624
:104F800016464FF0000815B90420BDE8F0812878D6
:104F9000022801D00120F8E7FDF75EF88046A87AE4
:104FA000E8B106F0010050B105E0002304223946C3
:104FB0002846FDF703FEA87A0028F6D105E0002375
:104FC000042239462846FDF7F9FD4046FDF748F82A
:104FD00006F0040008B9FDF732F90020D5E76C6847
:104FE000E08AA18A884204DB4046FDF739F81E209A
:104FF000CBE706F0020058B161682069884201D110
:10500000A06820612069001F20612069076009E015
:10501000E168081DE0600F60D4E90210884201D108
:105020006068E060E08A401CE0824046FDF718F8C6
:105030000020AAE72DE9F04705460C464FF0000A8C
:1050400015B90420BDE8F0870CB90920FAE72878E3
:10505000022801D00120F5E7FCF7FEFF8246A87A7E
:10506000207405F10B0804F10809002705E018F881
:10507000010B09F8010B781CC7B2082FF7D36E6833
:10508000F08A18B130690068206001E000202060DB
:10509000F08AA080B08AE0805046FCF7E1FF002053
:1050A000D0E72DE9F04160211048FDF750FB0024C6
:1050B0000DE0601C86B204EB44000C4901EBC00516
:1050C00006EB460001EBC0072F60601C84B2032C86
:1050D000EFD304EB4400054901EBC0050020286034
:1050E000084603490860BDE8F08100003839002017
:1050F000D0050020F748006808B900207047F5483F
:105100000168F44AC86810600020C8600861F2486D
:105110000088401CF04A1080F0480088401EEF4A8A
:1051200010800846EAE72DE9F05F06460F469046F4
:105130009946DDE90AAB0C9DB8F1010F09D0B8F131
:10514000020F0CD127B9832028700020BDE8F09F02
:1051500009E01EB9822028700020F7E703E08420D0
:1051600028700020F2E700BFDD48007818B18B20DE
:1051700028700020EAE7FDF726FCFFF7BBFF044696
:105180002CB9FDF739FC862028700020DEE70120CD
:1051900084F82500A661E76184F82480C4F80490AF
:1051A000C4F808A0C4F820B0FDF726FC0020287041
:1051B0002046CBE7002180F8251080F82410C1613B
:1051C000416141608160C7A1016200210161C14963
:1051D0000968C160BF490860BF490988491EBE4AC5
:1051E0001180BE490988491CBC4A1180704730B5FE
:1051F000057D05F00704BC4D05EBC4031D68854221
:1052000005D1C168196039B100250D6104E001695B
:10521000C268CA6002B11161012580F825500025DD
:10522000C56005619D886D1E9D8030BD70B50546C9
:105230000C461DB98A202070002070BD2878642893
:1052400003D0892020700020F7E7A548007818B126
:105250008B2020700020F0E7FDF7B5FB95F82500C6
:10526000D8B101280FD002280ED003281BD1284620
:10527000FFF7BDFF2846FFF79DFFFDF7BDFB0020B0
:1052800020700120D9E700BF2846FFF793FFFDF704
:10529000B3FB002020700120CFE7FDF7ADFB872096
:1052A00020700020C9E7FDF7A7FB8D2020700020AB
:1052B000C3E72DE9F04105460E46144626B988207D
:1052C00020700020BDE8F0811DB98A2020700020E8
:1052D000F8E72878642803D0892020700020F1E7BF
:1052E0007F48007818B1112020700020EAE7FDF710
:1052F0006AFB95F8250098B1012804D0022803D054
:10530000032813D100BF00BF286A30603068FCF763
:10531000F5FE0746FDF770FB002020703846D1E708
:10532000FDF76AFB872020700020CBE7FDF764FBC8
:105330008D2020700020C5E770B504460D461CB9CD
:105340008A202870002070BD2078642803D089202E
:1053500028700020F7E76248007818B18B20287089
:105360000020F0E7FDF72FFB94F8250070B301282B
:105370000DD0022825D003282ED15C496069096828
:10538000461AFDF739FB002028703046DBE794F819
:10539000240001280CD0022809D1A06908B9E669C7
:1053A00000E0A669FDF728FB0020287006E000BF9A
:1053B000A669FDF721FB0020287000BF00BF304622
:1053C000C1E7FDF719FB00202870BCE7FDF714FBCF
:1053D000872028700020B6E7FDF70EFB8D2028708F
:1053E0000020B0E770B505460C461DB98A20207034
:1053F000002070BD2878642803D089202070002008
:10540000F7E73748007818B18B2020700020F0E7CC
:10541000FDF7D9FA95F8256036B1012E05D0022E98
:1054200004D0032E06D102E000BF00BF00BF002061
:10543000207002E08D20207000BF00BFFDF7DCFA75
:105440003046D6E770B50B46032580F82550012B72
:1054500005D1264EC5693668354445610CE085693D
:105460002DB9224EC56936683544456104E01F4EAA
:105470008569366835444561057D05F007041A4D98
:1054800005EBC4010D682DB908600025C560012534
:105490008D8006E00A680860C26010618D886D1C0E
:1054A0008D800025056170BD70B505460C461DB99F
:1054B0008A202070002070BD2878642803D08920BD
:1054C00020700020F7E70648007888B18B20207014
:1054D0000020F0E7E8050020DA050020D8050020CC
:1054E000A50500203F000000183D0020DC0500203D
:1054F000FDF769FA95F82500E8B1012810D00228D7
:105500000FD003281DD12846FFF771FE0021284641
:10551000FFF798FFFDF770FA002020700120CAE71E
:1055200000BF00212846FFF78DFFFDF765FA002038
:1055300020700120BFE7FDF75FFA87202070002070
:10554000B9E7FDF759FA8D2020700020B3E72DE967
:10555000F04105460F4690461C4625B98A2020702A
:105560000020BDE8F0812878642803D089202070CD
:105570000020F6E77E48007818B18B2020700020CC
:10558000EFE7FDF720FA95F8250090B301282AD01F
:10559000022827D0032833D12846FFF728FE002011
:1055A0002070B7B1032F02D0042F13D108E06E682A
:1055B0001EB12846A968B04701E08F2020700CE09A
:1055C0006E681EB141462846B04701E08F2020702A
:1055D00003E002E08420207000BF00BFFDF70CFA5A
:1055E0000120BEE700BFFDF707FA8E2020700120E2
:1055F000B7E7FFE7FDF700FA872020700020B0E74B
:10560000FDF7FAF98D2020700020AAE710B559485F
:10561000006800F058FA0446204610BD08B500BFE7
:1056200000BF6A4600215348006800F091F9FDF779
:10563000CAF951480068401C4F4908600846007884
:1056400000F007084D4800EBC8073C681AE0E66820
:10565000494960690968884213D12046FFF7C7FDB0
:1056600094F82400022804D101212046FFF7EAFE25
:1056700002E0022084F82500656815B12046A16883
:10568000A8473446002CE2D1FDF7B6F9C9E700B5CA
:1056900087B0032000214022394BCDE90132CDE90A
:1056A00003104FF6FD703D23354AFC32009035481B
:1056B000FDF710FF06AA34A13D20FEF793F807B0CE
:1056C00000BDF8B54FF420713348FDF740F8402194
:1056D0002A48FDF73CF8002515E0681C86B205EB6A
:1056E00085002D4901EBC00406EB860001EBC007E5
:1056F00064202070002084F82500E760AFF21C20B1
:105700002062681C85B20F2DE7D305EB8500224986
:1057100001EBC00464202070002084F82500E060C4
:10572000AFF2402020620020134908601B49088026
:1057300010201B49088018481A490860012000F011
:1057400075F819490860002000F070F809490860F0
:105750006A4616A114480068FCF715FD6A4618A1B0
:1057600004480068FCF70FFDFFF791FFF8BD00004B
:10577000A5050020E4050020DC050020183D0020E0
:10578000183C00201D56000875432F4F532D4949E2
:1057900020546D720000000098390020DA050020C6
:1057A000D8050020E8050020E005002075432F4FB4
:1057B000532D494920546D724C6F636B00000000FB
:1057C00075432F4F532D494920546D725369676EAD
:1057D000616C0000704710B50446204600F037FAAF
:1057E00010BD704770477047704710B500F037FA2A
:1057F00010BD704710B500F045FA10BD70B50446F5
:1058000000260CB9002070BD2078032801D00020AC
:10581000F9E7FCF721FC0646258915B12089401ED1
:1058200020813046FCF71CFC2846ECE770B50546A5
:105830000026E548007808B1002070BDFCF70CFC9C
:105840000646E2480468006820B1E0480068406805
:10585000DE4908603046FCF703FC4CB103202070A1
:10586000258100206060DAA060612046FDF71EFA05
:105870002046E2E72DE9F0470446884615464FF0FA
:10588000000924B9042028702046BDE8F08720785C
:10589000032803D0012028702046F6E7CA48007884
:1058A00018B10F2028702046EFE7FCF7D5FB8146A2
:1058B000A07A08B1012700E00027B8F1000F03D05B
:1058C000B8F1010F3AD119E08FB9C1A06061002091
:1058D0002070BE480068606000202081BB480460E2
:1058E0004846FCF7BDFB00202870002605E048462E
:1058F000FCF7B6FB49202870264626E005E0002389
:10590000012219462046FDF759F9A07A0028F6D160
:10591000AFA0606100202070AC480068606000208B
:105920002081AA4804604846FCF79AFB012F01D168
:10593000FCF785FC00202870002606E04846FCF7AE
:105940008FFB07202870264600BF00BF30469CE72B
:105950002DE9F04105460E46144600271DB90420E6
:105960002070BDE8F0812878032802D00120207043
:10597000F7E79548007810B102202070F1E79548CC
:10598000007810B10D202070EBE7FCF765FB0746AF
:10599000288940B12889401E28813846FCF760FBE1
:1059A00000202070DDE78C48006890F8340040F05B
:1059B00001008949096881F8340000208649096896
:1059C00081F835008448006806632846FDF736F9FB
:1059D0003846FCF745FBFCF732FCFCF73DFB07467D
:1059E0007D48006890F8350020B1012809D00228D0
:1059F00006D102E0002020700BE00E20207008E0AD
:105A000000BF294674480068FDF7C3F80A202070DB
:105A100000BF00BF00207049096881F834006E495A
:105A2000096881F835006C490968C8616A490968E4
:105A300008623846FCF714FB00BF92E72DE9F041FD
:105A400004460F4615464FF0000824B9042028707C
:105A50000020BDE8F0812078032803D001202870C1
:105A60000020F6E7FCF7F8FA8046A07A20B300267B
:105A70007FB1012F0CD107E0022301220021204633
:105A8000FDF79CF8701CC6B2A07A0028F4D109E09A
:105A900000BF0223012200212046FDF78FF8701C71
:105AA000C6B200BF00BF4046FCF7DAFAFCF7C7FBFE
:105AB0000E2028703046CCE74046FCF7D1FA002093
:105AC000287000BFC5E770B5044600250CB9042056
:105AD00070BD2078032801D00120F9E7FCF7BCFA5B
